{
  "contractName": "MyShares",
  "abi": [
    {
      "constant": true,
      "inputs": [],
      "name": "name",
      "outputs": [
        {
          "name": "",
          "type": "string"
        }
      ],
      "payable": false,
      "stateMutability": "view",
      "type": "function"
    },
    {
      "constant": true,
      "inputs": [],
      "name": "decimals",
      "outputs": [
        {
          "name": "",
          "type": "uint8"
        }
      ],
      "payable": false,
      "stateMutability": "view",
      "type": "function"
    },
    {
      "constant": false,
      "inputs": [],
      "name": "renounceOwnership",
      "outputs": [],
      "payable": false,
      "stateMutability": "nonpayable",
      "type": "function"
    },
    {
      "constant": true,
      "inputs": [],
      "name": "owner",
      "outputs": [
        {
          "name": "",
          "type": "address"
        }
      ],
      "payable": false,
      "stateMutability": "view",
      "type": "function"
    },
    {
      "constant": true,
      "inputs": [],
      "name": "symbol",
      "outputs": [
        {
          "name": "",
          "type": "string"
        }
      ],
      "payable": false,
      "stateMutability": "view",
      "type": "function"
    },
    {
      "constant": false,
      "inputs": [
        {
          "name": "_newOwner",
          "type": "address"
        }
      ],
      "name": "transferOwnership",
      "outputs": [],
      "payable": false,
      "stateMutability": "nonpayable",
      "type": "function"
    },
    {
      "inputs": [
        {
          "name": "_name",
          "type": "string"
        },
        {
          "name": "_symbol",
          "type": "string"
        },
        {
          "name": "_totalSupply",
          "type": "uint256"
        }
      ],
      "payable": false,
      "stateMutability": "nonpayable",
      "type": "constructor"
    },
    {
      "anonymous": false,
      "inputs": [
        {
          "indexed": true,
          "name": "previousOwner",
          "type": "address"
        }
      ],
      "name": "OwnershipRenounced",
      "type": "event"
    },
    {
      "anonymous": false,
      "inputs": [
        {
          "indexed": true,
          "name": "previousOwner",
          "type": "address"
        },
        {
          "indexed": true,
          "name": "newOwner",
          "type": "address"
        }
      ],
      "name": "OwnershipTransferred",
      "type": "event"
    },
    {
      "anonymous": false,
      "inputs": [
        {
          "indexed": true,
          "name": "addr",
          "type": "address"
        },
        {
          "indexed": false,
          "name": "hash",
          "type": "bytes32"
        },
        {
          "indexed": true,
          "name": "sender",
          "type": "address"
        }
      ],
      "name": "VerifiedAddressAdded",
      "type": "event"
    },
    {
      "anonymous": false,
      "inputs": [
        {
          "indexed": true,
          "name": "addr",
          "type": "address"
        },
        {
          "indexed": true,
          "name": "sender",
          "type": "address"
        }
      ],
      "name": "VerifiedAddressRemoved",
      "type": "event"
    },
    {
      "anonymous": false,
      "inputs": [
        {
          "indexed": true,
          "name": "addr",
          "type": "address"
        },
        {
          "indexed": false,
          "name": "oldHash",
          "type": "bytes32"
        },
        {
          "indexed": false,
          "name": "hash",
          "type": "bytes32"
        },
        {
          "indexed": true,
          "name": "sender",
          "type": "address"
        }
      ],
      "name": "VerifiedAddressUpdated",
      "type": "event"
    },
    {
      "anonymous": false,
      "inputs": [
        {
          "indexed": true,
          "name": "original",
          "type": "address"
        },
        {
          "indexed": true,
          "name": "replacement",
          "type": "address"
        },
        {
          "indexed": true,
          "name": "sender",
          "type": "address"
        }
      ],
      "name": "VerifiedAddressSuperseded",
      "type": "event"
    },
    {
      "anonymous": false,
      "inputs": [
        {
          "indexed": true,
          "name": "owner",
          "type": "address"
        },
        {
          "indexed": true,
          "name": "spender",
          "type": "address"
        },
        {
          "indexed": false,
          "name": "value",
          "type": "uint256"
        }
      ],
      "name": "Approval",
      "type": "event"
    },
    {
      "anonymous": false,
      "inputs": [
        {
          "indexed": true,
          "name": "from",
          "type": "address"
        },
        {
          "indexed": true,
          "name": "to",
          "type": "address"
        },
        {
          "indexed": false,
          "name": "value",
          "type": "uint256"
        }
      ],
      "name": "Transfer",
      "type": "event"
    },
    {
      "constant": true,
      "inputs": [
        {
          "name": "_addr",
          "type": "address"
        }
      ],
      "name": "isHolder",
      "outputs": [
        {
          "name": "",
          "type": "bool"
        }
      ],
      "payable": false,
      "stateMutability": "view",
      "type": "function"
    },
    {
      "constant": true,
      "inputs": [
        {
          "name": "_addr",
          "type": "address"
        }
      ],
      "name": "isVerified",
      "outputs": [
        {
          "name": "",
          "type": "bool"
        }
      ],
      "payable": false,
      "stateMutability": "view",
      "type": "function"
    },
    {
      "constant": true,
      "inputs": [
        {
          "name": "_addr",
          "type": "address"
        },
        {
          "name": "_hash",
          "type": "bytes32"
        }
      ],
      "name": "hasHash",
      "outputs": [
        {
          "name": "",
          "type": "bool"
        }
      ],
      "payable": false,
      "stateMutability": "view",
      "type": "function"
    },
    {
      "constant": true,
      "inputs": [
        {
          "name": "_addr",
          "type": "address"
        }
      ],
      "name": "isSuperseded",
      "outputs": [
        {
          "name": "",
          "type": "bool"
        }
      ],
      "payable": false,
      "stateMutability": "view",
      "type": "function"
    },
    {
      "constant": true,
      "inputs": [],
      "name": "holderCount",
      "outputs": [
        {
          "name": "",
          "type": "uint256"
        }
      ],
      "payable": false,
      "stateMutability": "view",
      "type": "function"
    },
    {
      "constant": true,
      "inputs": [
        {
          "name": "_index",
          "type": "uint256"
        }
      ],
      "name": "holderAt",
      "outputs": [
        {
          "name": "",
          "type": "address"
        }
      ],
      "payable": false,
      "stateMutability": "view",
      "type": "function"
    },
    {
      "constant": true,
      "inputs": [
        {
          "name": "_addr",
          "type": "address"
        }
      ],
      "name": "getCurrentFor",
      "outputs": [
        {
          "name": "",
          "type": "address"
        }
      ],
      "payable": false,
      "stateMutability": "view",
      "type": "function"
    },
    {
      "constant": false,
      "inputs": [
        {
          "name": "_addr",
          "type": "address"
        },
        {
          "name": "_hash",
          "type": "bytes32"
        }
      ],
      "name": "addVerified",
      "outputs": [],
      "payable": false,
      "stateMutability": "nonpayable",
      "type": "function"
    },
    {
      "constant": false,
      "inputs": [
        {
          "name": "_addr",
          "type": "address"
        }
      ],
      "name": "removeVerified",
      "outputs": [],
      "payable": false,
      "stateMutability": "nonpayable",
      "type": "function"
    },
    {
      "constant": false,
      "inputs": [
        {
          "name": "_addr",
          "type": "address"
        },
        {
          "name": "_hash",
          "type": "bytes32"
        }
      ],
      "name": "updateVerified",
      "outputs": [],
      "payable": false,
      "stateMutability": "nonpayable",
      "type": "function"
    },
    {
      "constant": false,
      "inputs": [
        {
          "name": "_oldAddr",
          "type": "address"
        },
        {
          "name": "_newAddr",
          "type": "address"
        }
      ],
      "name": "cancelAndReissue",
      "outputs": [],
      "payable": false,
      "stateMutability": "nonpayable",
      "type": "function"
    },
    {
      "constant": true,
      "inputs": [],
      "name": "totalSupply",
      "outputs": [
        {
          "name": "",
          "type": "uint256"
        }
      ],
      "payable": false,
      "stateMutability": "view",
      "type": "function"
    },
    {
      "constant": true,
      "inputs": [
        {
          "name": "_addr",
          "type": "address"
        }
      ],
      "name": "balanceOf",
      "outputs": [
        {
          "name": "",
          "type": "uint256"
        }
      ],
      "payable": false,
      "stateMutability": "view",
      "type": "function"
    },
    {
      "constant": false,
      "inputs": [
        {
          "name": "_to",
          "type": "address"
        },
        {
          "name": "_value",
          "type": "uint256"
        }
      ],
      "name": "transfer",
      "outputs": [
        {
          "name": "",
          "type": "bool"
        }
      ],
      "payable": false,
      "stateMutability": "nonpayable",
      "type": "function"
    },
    {
      "constant": false,
      "inputs": [
        {
          "name": "_from",
          "type": "address"
        },
        {
          "name": "_to",
          "type": "address"
        },
        {
          "name": "_value",
          "type": "uint256"
        }
      ],
      "name": "transferFrom",
      "outputs": [
        {
          "name": "",
          "type": "bool"
        }
      ],
      "payable": false,
      "stateMutability": "nonpayable",
      "type": "function"
    },
    {
      "constant": true,
      "inputs": [
        {
          "name": "_owner",
          "type": "address"
        },
        {
          "name": "_spender",
          "type": "address"
        }
      ],
      "name": "allowance",
      "outputs": [
        {
          "name": "",
          "type": "uint256"
        }
      ],
      "payable": false,
      "stateMutability": "view",
      "type": "function"
    },
    {
      "constant": false,
      "inputs": [
        {
          "name": "_spender",
          "type": "address"
        },
        {
          "name": "_value",
          "type": "uint256"
        }
      ],
      "name": "approve",
      "outputs": [
        {
          "name": "",
          "type": "bool"
        }
      ],
      "payable": false,
      "stateMutability": "nonpayable",
      "type": "function"
    }
  ],
  "bytecode": "0x60806040523480156200001157600080fd5b50604051620023a5380380620023a58339810180604052810190808051820192919060200180518201929190602001805190602001909291905050508260019080519060200190620000659291906200012f565b5081600290805190602001906200007e9291906200012f565b506000600360006101000a81548160ff021916908360ff160217905550336000806101000a81548173ffffffffffffffffffffffffffffffffffffffff021916908373ffffffffffffffffffffffffffffffffffffffff1602179055508060048190555080600560003373ffffffffffffffffffffffffffffffffffffffff1673ffffffffffffffffffffffffffffffffffffffff16815260200190815260200160002081905550505050620001de565b828054600181600116156101000203166002900490600052602060002090601f016020900481019282601f106200017257805160ff1916838001178555620001a3565b82800160010185558215620001a3579182015b82811115620001a257825182559160200191906001019062000185565b5b509050620001b29190620001b6565b5090565b620001db91905b80821115620001d7576000816000905550600101620001bd565b5090565b90565b6121b780620001ee6000396000f300608060405260043610610133576000357c0100000000000000000000000000000000000000000000000000000000900463ffffffff16806306fdde0314610138578063095ea7b3146101c857806318160ddd1461022d578063197bc336146102585780631aab9a9f146102c557806323b872dd146102f05780632da7293e14610375578063313ce567146103d0578063354b7b1d146104015780634487b3921461045257806347089f621461049557806370a08231146104e6578063715018a61461053d57806379f64720146105545780638da5cb5b146105b757806395d89b411461060e578063a9059cbb1461069e578063b9209e3314610703578063cc397ed31461075e578063d4d7b19a146107e1578063dd62ed3e1461083c578063f2fde38b146108b3578063f3221c7f146108f6575b600080fd5b34801561014457600080fd5b5061014d61095f565b6040518080602001828103825283818151815260200191508051906020019080838360005b8381101561018d578082015181840152602081019050610172565b50505050905090810190601f1680156101ba5780820380516001836020036101000a031916815260200191505b509250505060405180910390f35b3480156101d457600080fd5b50610213600480360381019080803573ffffffffffffffffffffffffffffffffffffffff169060200190929190803590602001909291905050506109fd565b604051808215151515815260200191505060405180910390f35b34801561023957600080fd5b50610242610b98565b6040518082815260200191505060405180910390f35b34801561026457600080fd5b5061028360048036038101908080359060200190929190505050610ba2565b604051808273ffffffffffffffffffffffffffffffffffffffff1673ffffffffffffffffffffffffffffffffffffffff16815260200191505060405180910390f35b3480156102d157600080fd5b506102da610be8565b6040518082815260200191505060405180910390f35b3480156102fc57600080fd5b5061035b600480360381019080803573ffffffffffffffffffffffffffffffffffffffff169060200190929190803573ffffffffffffffffffffffffffffffffffffffff16906020019092919080359060200190929190505050610bf5565b604051808215151515815260200191505060405180910390f35b34801561038157600080fd5b506103b6600480360381019080803573ffffffffffffffffffffffffffffffffffffffff169060200190929190505050610de0565b604051808215151515815260200191505060405180910390f35b3480156103dc57600080fd5b506103e5610e78565b604051808260ff1660ff16815260200191505060405180910390f35b34801561040d57600080fd5b50610450600480360381019080803573ffffffffffffffffffffffffffffffffffffffff1690602001909291908035600019169060200190929190505050610e8b565b005b34801561045e57600080fd5b50610493600480360381019080803573ffffffffffffffffffffffffffffffffffffffff16906020019092919050505061106b565b005b3480156104a157600080fd5b506104e4600480360381019080803573ffffffffffffffffffffffffffffffffffffffff1690602001909291908035600019169060200190929190505050611219565b005b3480156104f257600080fd5b50610527600480360381019080803573ffffffffffffffffffffffffffffffffffffffff169060200190929190505050611386565b6040518082815260200191505060405180910390f35b34801561054957600080fd5b506105526113cf565b005b34801561056057600080fd5b506105b5600480360381019080803573ffffffffffffffffffffffffffffffffffffffff169060200190929190803573ffffffffffffffffffffffffffffffffffffffff169060200190929190505050611436565b005b3480156105c357600080fd5b506105cc611725565b604051808273ffffffffffffffffffffffffffffffffffffffff1673ffffffffffffffffffffffffffffffffffffffff16815260200191505060405180910390f35b34801561061a57600080fd5b5061062361174a565b6040518080602001828103825283818151815260200191508051906020019080838360005b83811015610663578082015181840152602081019050610648565b50505050905090810190601f1680156106905780820380516001836020036101000a031916815260200191505b509250505060405180910390f35b3480156106aa57600080fd5b506106e9600480360381019080803573ffffffffffffffffffffffffffffffffffffffff169060200190929190803590602001909291905050506117e8565b604051808215151515815260200191505060405180910390f35b34801561070f57600080fd5b50610744600480360381019080803573ffffffffffffffffffffffffffffffffffffffff1690602001909291905050506118b5565b604051808215151515815260200191505060405180910390f35b34801561076a57600080fd5b5061079f600480360381019080803573ffffffffffffffffffffffffffffffffffffffff16906020019092919050505061190c565b604051808273ffffffffffffffffffffffffffffffffffffffff1673ffffffffffffffffffffffffffffffffffffffff16815260200191505060405180910390f35b3480156107ed57600080fd5b50610822600480360381019080803573ffffffffffffffffffffffffffffffffffffffff169060200190929190505050611a1a565b604051808215151515815260200191505060405180910390f35b34801561084857600080fd5b5061089d600480360381019080803573ffffffffffffffffffffffffffffffffffffffff169060200190929190803573ffffffffffffffffffffffffffffffffffffffff169060200190929190505050611a66565b6040518082815260200191505060405180910390f35b3480156108bf57600080fd5b506108f4600480360381019080803573ffffffffffffffffffffffffffffffffffffffff169060200190929190505050611aed565b005b34801561090257600080fd5b50610945600480360381019080803573ffffffffffffffffffffffffffffffffffffffff1690602001909291908035600019169060200190929190505050611b54565b604051808215151515815260200191505060405180910390f35b60018054600181600116156101000203166002900480601f0160208091040260200160405190810160405280929190818152602001828054600181600116156101000203166002900480156109f55780601f106109ca576101008083540402835291602001916109f5565b820191906000526020600020905b8154815290600101906020018083116109d857829003601f168201915b505050505081565b600082600060010260001916600760008373ffffffffffffffffffffffffffffffffffffffff1673ffffffffffffffffffffffffffffffffffffffff168152602001908152602001600020546000191614151515610a5a57600080fd5b82600560008673ffffffffffffffffffffffffffffffffffffffff1673ffffffffffffffffffffffffffffffffffffffff16815260200190815260200160002054111515610aa757600080fd5b82600660003373ffffffffffffffffffffffffffffffffffffffff1673ffffffffffffffffffffffffffffffffffffffff16815260200190815260200160002060008673ffffffffffffffffffffffffffffffffffffffff1673ffffffffffffffffffffffffffffffffffffffff168152602001908152602001600020819055508373ffffffffffffffffffffffffffffffffffffffff163373ffffffffffffffffffffffffffffffffffffffff167f8c5be1e5ebec7d5bd14f71427d1e84f3dd0314c0f7b2291e5b200ac8c7c3b925856040518082815260200191505060405180910390a3600191505092915050565b6000600454905090565b6000600960018303815481101515610bb657fe5b9060005260206000200160009054906101000a900473ffffffffffffffffffffffffffffffffffffffff169050919050565b6000600980549050905090565b600080600660008673ffffffffffffffffffffffffffffffffffffffff1673ffffffffffffffffffffffffffffffffffffffff16815260200190815260200160002060003373ffffffffffffffffffffffffffffffffffffffff1673ffffffffffffffffffffffffffffffffffffffff168152602001908152602001600020549050808311158015610cc6575082600560008773ffffffffffffffffffffffffffffffffffffffff1673ffffffffffffffffffffffffffffffffffffffff1681526020019081526020016000205410155b1515610cd157600080fd5b610ce48382611ba890919063ffffffff16565b600660008773ffffffffffffffffffffffffffffffffffffffff1673ffffffffffffffffffffffffffffffffffffffff16815260200190815260200160002060003373ffffffffffffffffffffffffffffffffffffffff1673ffffffffffffffffffffffffffffffffffffffff16815260200190815260200160002081905550610d6f858585611bc1565b8373ffffffffffffffffffffffffffffffffffffffff163373ffffffffffffffffffffffffffffffffffffffff167fddf252ad1be2c89b69c2b068fc378daa952ba7f163c4a11628f55a4df523b3ef856040518082815260200191505060405180910390a360019150509392505050565b60008073ffffffffffffffffffffffffffffffffffffffff16600a60008473ffffffffffffffffffffffffffffffffffffffff1673ffffffffffffffffffffffffffffffffffffffff16815260200190815260200160002060009054906101000a900473ffffffffffffffffffffffffffffffffffffffff1673ffffffffffffffffffffffffffffffffffffffff1614159050919050565b600360009054906101000a900460ff1681565b60008060009054906101000a900473ffffffffffffffffffffffffffffffffffffffff1673ffffffffffffffffffffffffffffffffffffffff163373ffffffffffffffffffffffffffffffffffffffff16141515610ee857600080fd5b82600060010260001916600760008373ffffffffffffffffffffffffffffffffffffffff1673ffffffffffffffffffffffffffffffffffffffff168152602001908152602001600020546000191614151515610f4357600080fd5b600060010260001916836000191614151515610f5e57600080fd5b600760008573ffffffffffffffffffffffffffffffffffffffff1673ffffffffffffffffffffffffffffffffffffffff16815260200190815260200160002054915082600760008673ffffffffffffffffffffffffffffffffffffffff1673ffffffffffffffffffffffffffffffffffffffff16815260200190815260200160002081600019169055503373ffffffffffffffffffffffffffffffffffffffff168473ffffffffffffffffffffffffffffffffffffffff167f63ec12603f028c6f74dc3c59a67d645d431250142b56676015d25475ee3fc3d3848660405180836000191660001916815260200182600019166000191681526020019250505060405180910390a350505050565b6000809054906101000a900473ffffffffffffffffffffffffffffffffffffffff1673ffffffffffffffffffffffffffffffffffffffff163373ffffffffffffffffffffffffffffffffffffffff161415156110c657600080fd5b80600060010260001916600760008373ffffffffffffffffffffffffffffffffffffffff1673ffffffffffffffffffffffffffffffffffffffff16815260200190815260200160002054600019161415151561112157600080fd5b6000600560008473ffffffffffffffffffffffffffffffffffffffff1673ffffffffffffffffffffffffffffffffffffffff1681526020019081526020016000205414151561116f57600080fd5b6000600102600760008473ffffffffffffffffffffffffffffffffffffffff1673ffffffffffffffffffffffffffffffffffffffff16815260200190815260200160002081600019169055503373ffffffffffffffffffffffffffffffffffffffff168273ffffffffffffffffffffffffffffffffffffffff167f8071c01a493142de896a206c19ca180d32e91d6486fcf11ea299f569f5d922b560405160405180910390a35050565b6000809054906101000a900473ffffffffffffffffffffffffffffffffffffffff1673ffffffffffffffffffffffffffffffffffffffff163373ffffffffffffffffffffffffffffffffffffffff1614151561127457600080fd5b600060010260001916600760008473ffffffffffffffffffffffffffffffffffffffff1673ffffffffffffffffffffffffffffffffffffffff16815260200190815260200160002054600019161415156112cd57600080fd5b80600760008473ffffffffffffffffffffffffffffffffffffffff1673ffffffffffffffffffffffffffffffffffffffff16815260200190815260200160002081600019169055503373ffffffffffffffffffffffffffffffffffffffff168273ffffffffffffffffffffffffffffffffffffffff167fb4f9d1d687d745820ae7c948518d6eef182cfbf5ef20b5b6a33769059592e7c88360405180826000191660001916815260200191505060405180910390a35050565b6000600560008373ffffffffffffffffffffffffffffffffffffffff1673ffffffffffffffffffffffffffffffffffffffff168152602001908152602001600020549050919050565b6000809054906101000a900473ffffffffffffffffffffffffffffffffffffffff1673ffffffffffffffffffffffffffffffffffffffff163373ffffffffffffffffffffffffffffffffffffffff1614151561142a57600080fd5b6114346000611d5c565b565b6000809054906101000a900473ffffffffffffffffffffffffffffffffffffffff1673ffffffffffffffffffffffffffffffffffffffff163373ffffffffffffffffffffffffffffffffffffffff1614151561149157600080fd5b81600060010260001916600760008373ffffffffffffffffffffffffffffffffffffffff1673ffffffffffffffffffffffffffffffffffffffff1681526020019081526020016000205460001916141515156114ec57600080fd5b826000600860008373ffffffffffffffffffffffffffffffffffffffff1673ffffffffffffffffffffffffffffffffffffffff168152602001908152602001600020541415151561153c57600080fd5b82600060010260001916600760008373ffffffffffffffffffffffffffffffffffffffff1673ffffffffffffffffffffffffffffffffffffffff16815260200190815260200160002054600019161415151561159757600080fd5b6000600860008673ffffffffffffffffffffffffffffffffffffffff1673ffffffffffffffffffffffffffffffffffffffff168152602001908152602001600020541415156115e557600080fd5b83600a60008773ffffffffffffffffffffffffffffffffffffffff1673ffffffffffffffffffffffffffffffffffffffff16815260200190815260200160002060006101000a81548173ffffffffffffffffffffffffffffffffffffffff021916908373ffffffffffffffffffffffffffffffffffffffff1602179055506116ad8585600560008973ffffffffffffffffffffffffffffffffffffffff1673ffffffffffffffffffffffffffffffffffffffff16815260200190815260200160002054611bc1565b3373ffffffffffffffffffffffffffffffffffffffff168473ffffffffffffffffffffffffffffffffffffffff168673ffffffffffffffffffffffffffffffffffffffff167fb64971100522354f3d25283cb14e2eefcb0dd26a757482ccfe42479d0a68685760405160405180910390a45050505050565b6000809054906101000a900473ffffffffffffffffffffffffffffffffffffffff1681565b60028054600181600116156101000203166002900480601f0160208091040260200160405190810160405280929190818152602001828054600181600116156101000203166002900480156117e05780601f106117b5576101008083540402835291602001916117e0565b820191906000526020600020905b8154815290600101906020018083116117c357829003601f168201915b505050505081565b6000336000600860008373ffffffffffffffffffffffffffffffffffffffff1673ffffffffffffffffffffffffffffffffffffffff168152602001908152602001600020541415151561183a57600080fd5b611845338585611bc1565b8373ffffffffffffffffffffffffffffffffffffffff163373ffffffffffffffffffffffffffffffffffffffff167fddf252ad1be2c89b69c2b068fc378daa952ba7f163c4a11628f55a4df523b3ef856040518082815260200191505060405180910390a3600191505092915050565b60008060010260001916600760008473ffffffffffffffffffffffffffffffffffffffff1673ffffffffffffffffffffffffffffffffffffffff168152602001908152602001600020546000191614159050919050565b60008073ffffffffffffffffffffffffffffffffffffffff16600a60008473ffffffffffffffffffffffffffffffffffffffff1673ffffffffffffffffffffffffffffffffffffffff16815260200190815260200160002060009054906101000a900473ffffffffffffffffffffffffffffffffffffffff1673ffffffffffffffffffffffffffffffffffffffff16141515611a1157611a0a600a60008473ffffffffffffffffffffffffffffffffffffffff1673ffffffffffffffffffffffffffffffffffffffff16815260200190815260200160002060009054906101000a900473ffffffffffffffffffffffffffffffffffffffff1661190c565b9050611a15565b8190505b919050565b600080600860008473ffffffffffffffffffffffffffffffffffffffff1673ffffffffffffffffffffffffffffffffffffffff1681526020019081526020016000205414159050919050565b6000600660008473ffffffffffffffffffffffffffffffffffffffff1673ffffffffffffffffffffffffffffffffffffffff16815260200190815260200160002060008373ffffffffffffffffffffffffffffffffffffffff1673ffffffffffffffffffffffffffffffffffffffff16815260200190815260200160002054905092915050565b6000809054906101000a900473ffffffffffffffffffffffffffffffffffffffff1673ffffffffffffffffffffffffffffffffffffffff163373ffffffffffffffffffffffffffffffffffffffff16141515611b4857600080fd5b611b5181611d5c565b50565b60008160001916600760008573ffffffffffffffffffffffffffffffffffffffff1673ffffffffffffffffffffffffffffffffffffffff168152602001908152602001600020546000191614905092915050565b6000828211151515611bb657fe5b818303905092915050565b600081118015611c10575080600560008573ffffffffffffffffffffffffffffffffffffffff1673ffffffffffffffffffffffffffffffffffffffff1681526020019081526020016000205410155b1515611c1b57600080fd5b611c6d81600560008673ffffffffffffffffffffffffffffffffffffffff1673ffffffffffffffffffffffffffffffffffffffff16815260200190815260200160002054611ba890919063ffffffff16565b600560008573ffffffffffffffffffffffffffffffffffffffff1673ffffffffffffffffffffffffffffffffffffffff16815260200190815260200160002081905550611d0281600560008573ffffffffffffffffffffffffffffffffffffffff1673ffffffffffffffffffffffffffffffffffffffff16815260200190815260200160002054611e5690919063ffffffff16565b600560008473ffffffffffffffffffffffffffffffffffffffff1673ffffffffffffffffffffffffffffffffffffffff16815260200190815260200160002081905550611d4e83611e72565b611d5782612046565b505050565b600073ffffffffffffffffffffffffffffffffffffffff168173ffffffffffffffffffffffffffffffffffffffff1614151515611d9857600080fd5b8073ffffffffffffffffffffffffffffffffffffffff166000809054906101000a900473ffffffffffffffffffffffffffffffffffffffff1673ffffffffffffffffffffffffffffffffffffffff167f8be0079c531659141344cd1fd0a4f28419497f9722a3daafe3b4186f6b6457e060405160405180910390a3806000806101000a81548173ffffffffffffffffffffffffffffffffffffffff021916908373ffffffffffffffffffffffffffffffffffffffff16021790555050565b60008183019050828110151515611e6957fe5b80905092915050565b6000806000600560008573ffffffffffffffffffffffffffffffffffffffff1673ffffffffffffffffffffffffffffffffffffffff168152602001908152602001600020541415612041576001600860008573ffffffffffffffffffffffffffffffffffffffff1673ffffffffffffffffffffffffffffffffffffffff168152602001908152602001600020540391506009600160098054905003815481101515611f1957fe5b9060005260206000200160009054906101000a900473ffffffffffffffffffffffffffffffffffffffff16905080600983815481101515611f5657fe5b9060005260206000200160006101000a81548173ffffffffffffffffffffffffffffffffffffffff021916908373ffffffffffffffffffffffffffffffffffffffff1602179055506009805480919060019003611fb3919061213a565b506000600860008573ffffffffffffffffffffffffffffffffffffffff1673ffffffffffffffffffffffffffffffffffffffff1681526020019081526020016000208190555060018201600860008373ffffffffffffffffffffffffffffffffffffffff1673ffffffffffffffffffffffffffffffffffffffff168152602001908152602001600020819055505b505050565b6000600860008373ffffffffffffffffffffffffffffffffffffffff1673ffffffffffffffffffffffffffffffffffffffff1681526020019081526020016000205414156121375760098190806001815401808255809150509060018203906000526020600020016000909192909190916101000a81548173ffffffffffffffffffffffffffffffffffffffff021916908373ffffffffffffffffffffffffffffffffffffffff160217905550600860008373ffffffffffffffffffffffffffffffffffffffff1673ffffffffffffffffffffffffffffffffffffffff168152602001908152602001600020819055505b50565b815481835581811115612161578183600052602060002091820191016121609190612166565b5b505050565b61218891905b8082111561218457600081600090555060010161216c565b5090565b905600a165627a7a7230582025bdd13eca3a0444afa04301747520c714e2f793fe8b080b00822b7dbcf0ee990029",
  "source": "pragma solidity ^0.4.24;\r\n\r\nimport \"./lib/ERC884.sol\";\r\nimport \"./lib/Ownable.sol\";\r\nimport \"./lib/SafeMath.sol\";\r\n\r\n// 23rd July 2018\r\n//\r\n\r\n/** My implementation of a simple share using erc 884\r\n*   erc 884 could be subject to change.\r\n*   @author Kevin\r\n**/\r\ncontract MyShares is ERC884, Ownable {\r\n    using SafeMath for uint256;\r\n\r\n    // ERC20\r\n\r\n    string public name;\r\n    string public symbol;\r\n    uint8 public decimals;\r\n    uint256 public totalSupply;\r\n\r\n    mapping (address => uint256) private balances;\r\n    mapping (address => mapping (address => uint256)) private allowed;\r\n\r\n    // ERC884\r\n\r\n    mapping (address => bytes32) private verifiedAddressHashes;\r\n    mapping (address => uint256) private verifiedAddressShareholderIndex;\r\n\r\n    /** \r\n    *   To clarify, shareholders are verified address that are currently holding the tokens.\r\n    *   verified addresses might not need to hold tokens because they could have sold their bags\r\n    **/\r\n    address[] private shareholders;\r\n\r\n    // TODO: verifiy if cancellation records is actually necessary. \r\n    // We should assume that users will do their own DD elsewhere\r\n\r\n    mapping (address => address) private supersededAddresses;\r\n\r\n    /** Constructor taking in all params decimals will be set to 0\r\n    *   \r\n     **/    \r\n    constructor(string _name, string _symbol, uint256 _totalSupply) public {\r\n        name = _name;\r\n        symbol = _symbol;\r\n        decimals = uint8(0);\r\n        owner = msg.sender;\r\n        totalSupply = _totalSupply;\r\n        balances[msg.sender] = _totalSupply;\r\n    }\r\n\r\n    // Section private functions\r\n\r\n    /**\r\n    *   With inspirations taken from prune shareholder from the reference implementation obviously.\r\n    **/\r\n    function _cleanShareholder(address _addr) private {\r\n        // check if address still has coin\r\n        // check if not, remove coin from index mapping. then replace last coin to current index. \r\n        // change last coin index to current index\r\n\r\n        if(balances[_addr] == 0) {\r\n            uint256 currentIndex = verifiedAddressShareholderIndex[_addr] - 1;\r\n            address lastAddr = shareholders[shareholders.length - 1];\r\n            shareholders[currentIndex] = lastAddr;\r\n            shareholders.length--;\r\n            verifiedAddressShareholderIndex[_addr] = 0;\r\n            verifiedAddressShareholderIndex[lastAddr] = currentIndex + 1; \r\n        }\r\n    }\r\n\r\n    function _addShareHolder(address _addr) private {\r\n        if(verifiedAddressShareholderIndex[_addr] == 0) {\r\n            verifiedAddressShareholderIndex[_addr] = shareholders.push(_addr);\r\n        }\r\n    }\r\n\r\n    function _transferTokens(address _from, address _to, uint256 _value) private {\r\n        require(_value > 0 && balances[_from] >= _value);\r\n\r\n        balances[_from] = balances[_from].sub(_value);\r\n        balances[_to] = balances[_to].add(_value);\r\n\r\n        _cleanShareholder(_from);\r\n        _addShareHolder(_to);\r\n    }\r\n\r\n    // Implement for ERC 884\r\n\r\n    // Section modifiers\r\n\r\n    modifier onlyVerifiedAddress(address _address) {\r\n        require(verifiedAddressHashes[_address] != bytes32(0));\r\n        _;\r\n    }\r\n\r\n    modifier onlyShareholder(address _address) {\r\n        require(verifiedAddressShareholderIndex[_address] != 0);\r\n        _;\r\n    }\r\n\r\n    // Section functions\r\n\r\n    function isHolder(address _addr) public view returns(bool) {\r\n        return verifiedAddressShareholderIndex[_addr] != 0;\r\n    }\r\n\r\n    function isVerified(address _addr) public view returns(bool) {\r\n        return verifiedAddressHashes[_addr] != bytes32(0);\r\n    }\r\n\r\n    function hasHash(address _addr, bytes32 _hash) public view returns(bool) {\r\n        return verifiedAddressHashes[_addr] == _hash;\r\n    }\r\n\r\n    function isSuperseded(address _addr) public view returns(bool) {\r\n        return supersededAddresses[_addr] != address(0);\r\n    }\r\n\r\n    function holderCount() public view returns(uint256) {\r\n        return shareholders.length;\r\n    }\r\n\r\n    function holderAt(uint256 _index) public view returns(address) {\r\n        return shareholders[_index - 1];\r\n    }\r\n\r\n    function getCurrentFor(address _addr) public view returns(address) {\r\n        if(supersededAddresses[_addr] != address(0))\r\n            return getCurrentFor(supersededAddresses[_addr]);\r\n        else\r\n            return _addr;\r\n    }\r\n\r\n    function addVerified(address _addr, bytes32 _hash) public onlyOwner {\r\n        require(verifiedAddressHashes[_addr] == bytes32(0));\r\n        verifiedAddressHashes[_addr] = _hash;\r\n        emit VerifiedAddressAdded(_addr, _hash, msg.sender);\r\n    }\r\n\r\n    function removeVerified(address _addr) public onlyOwner  onlyVerifiedAddress(_addr) {\r\n        require(balances[_addr] == 0);\r\n        verifiedAddressHashes[_addr] = bytes32(0);\r\n        emit VerifiedAddressRemoved(_addr, msg.sender); \r\n    }\r\n\r\n    function updateVerified(address _addr, bytes32 _hash) public onlyOwner onlyVerifiedAddress(_addr) {\r\n        require(_hash != bytes32(0));\r\n        bytes32 oldHash = verifiedAddressHashes[_addr];\r\n        verifiedAddressHashes[_addr] = _hash;\r\n        emit VerifiedAddressUpdated(_addr, oldHash, _hash, msg.sender);\r\n    }\r\n\r\n    function cancelAndReissue(address _oldAddr, address _newAddr) public \r\n    onlyOwner \r\n    onlyVerifiedAddress(_oldAddr) \r\n    onlyShareholder(_oldAddr)\r\n    onlyVerifiedAddress(_newAddr) {\r\n        require(verifiedAddressShareholderIndex[_newAddr] == 0);\r\n        supersededAddresses[_oldAddr] = _newAddr;\r\n        _transferTokens(_oldAddr, _newAddr, balances[_oldAddr]);\r\n        emit VerifiedAddressSuperseded(_oldAddr, _newAddr, msg.sender);\r\n    }\r\n\r\n    // Implement for ERC 20\r\n\r\n    function totalSupply() public view returns(uint256) {\r\n        return totalSupply;\r\n    }\r\n\r\n    function balanceOf(address _addr) public view returns(uint256) {\r\n        return balances[_addr];\r\n    }\r\n\r\n    function transfer(address _to, uint256 _value) public onlyShareholder(msg.sender) returns(bool) {\r\n        _transferTokens(msg.sender, _to, _value);\r\n        emit Transfer(msg.sender, _to, _value);\r\n        return true;\r\n    }\r\n\r\n    function transferFrom(address _from, address _to, uint256 _value) public returns(bool) {\r\n        uint256 allowedTransferSender = allowed[_from][msg.sender];\r\n        require(_value <= allowedTransferSender && balances[_from] >= _value);\r\n        allowed[_from][msg.sender] = allowedTransferSender.sub(_value);\r\n        _transferTokens(_from, _to, _value);\r\n        emit Transfer(msg.sender, _to, _value);\r\n        return true;\r\n    }\r\n\r\n    function allowance(address _owner, address _spender) public view returns(uint256) {\r\n        return allowed[_owner][_spender];\r\n    }\r\n\r\n    function approve(address _spender, uint256 _value) public onlyVerifiedAddress(_spender) returns(bool) {\r\n        require(balances[_spender] > _value);\r\n        allowed[msg.sender][_spender] = _value;\r\n        emit Approval(msg.sender, _spender, _value);\r\n        return true;\r\n    }\r\n}",
  "sourcePath": "C:\\Users\\werty\\source\\repos\\erc-884-tests\\contracts\\MyShares.sol",
  "compiler": {
    "name": "solc",
    "version": "0.4.24+commit.e67f0147.Emscripten.clang"
  },
  "schemaVersion": "2.0.0",
  "updatedAt": "2018-07-26T05:47:55.922Z"
}